:0C00000019C0FECFFDCFFCCFFBCFFACF24
:10000C00F9CFF8CFF7CFC5C0F5CFF4CFF3CFF2CF00
:10001C00F1CFF0CFEFCFEECFEDCF005300000000CB
:10002C000600040026000000F894EE27ECBBF1E07B
:10003C00FBBFEBBFE5BF8DE0A2E0BB27ED938A953C
:10004C00E9F780E094E0A0E6ED930197E9F7ECE2A4
:10005C00F0E085919591009761F0A591B59105908F
:10006C001590BF01F00105900D920197E1F7FB018E
:10007C00F0CFEFE5EDBFE4E0EEBFC0E6D1E0B6C0F7
:10008C00AA931A9310E0183088F4E981E07811F4FF
:10009C00AB9801C0AB9AEAD0E981EE0FE983EAD0C4
:1000AC00A981EA2BE983AA981F5FEDCFE98118811A
:1000BC001FC003D110E000E0083038F4D7D0110F86
:1000CC00D9D01E2BAA980F5FF7CFE12F0991199168
:1000DC000895A89A88E795E00197F1F7A898A99A4E
:1000EC000895AA93A998E981E062AE2FC9D0CBD02C
:1000FC0022960895AA93A99816C0AA93A998E3E00A
:10010C00EA93A3E0EEDFBFD0A998AAE2B9D0A88108
:10011C00B7D0A881B5D0B7D0A998A0E3B1D0A881A9
:10012C00AFD0A881ADDFA881ABDFADD0219608950B
:10013C00AFD0A89A0895A2EEDDDF8BE18A95F1F796
:10014C00A7D0A2E0B0E0AFD0A7D0E1E1A9D0E5E024
:10015C00EA93A2E0C6DFA52DD0DFE2E0A1D0E1E07A
:10016C009FD0E4E0EA93A0E0BCDF08951A93A8982E
:10017C008AD0A998A1E684DF8BE18A95F1F799DF03
:10018C001E2FA99AA89A88D0A2EEB4DFE12F19915C
:10019C0008950A921A92FA926A937A938A939A938E
:1001AC00AA93BA93EA93FA93EFB7EA93E3E8E2BF20
:1001BC00E1E0E71521F43ED0F40131964F01E0ED7A
:1001CC00F7E0E815F90521F449D08824992477241F
:1001DC00E991EFBFF991E991B991A991999189911F
:1001EC0079916991F990199009901895E0E0E7BB25
:1001FC00E8BBEFE0E4BBEFEAE5BBE7E0E1BBE0E046
:10020C00E2BBE3E0E3BFE3E8E2BFE1E0E9BF7894FF
:10021C0092DF5FDF8DDF9D990BC0A8DF4E2E44204F
:10022C0011F4E1E07E2EE1E0E41511F4E2E07E2E23
:10023C00F1CFFFCF9098929B02C0919801C0919AF8
:10024C00919B02C0919801C0919A929B02C0929886
:10025C0001C0929AAAEFB0E026D008959198929896
:10026C00909B02C0909801C0909A08958DE08A9559
:10027C00F1F70895AA9AFADFE0E09C99E1E008957D
:10028C00FFDEA881FDCEA99A8BE18A95F1F708953E
:10029C00E0E0EA93AFE125CFE7E0EA93AEE721CFC8
:1002AC00EA93A1E01ECF109639F080ED97E001970C
:1002BC00F1F7A8951197C9F708951A930A93089521
:00000001FF
